:020000040000FA
:04000000A5EF0FF069
:0400080018EF10F0ED
:0800180000EF20F010009BEF47
:1000200004F0C0EF0CF06DEF0FF0CDEF0BF050EFE0
:100030000FF0C1EF07F03AEF0DF086EF0FF0D8EFB9
:100040000AF0C0EF0FF037EF0EF0D9EF08F0ADEF88
:100050000DF030EF0FF009EF0FF0EEEF0EF0CEEFF6
:100060000EF0AFEF0FF07AEF0FF05FEF0FF095EFBC
:1000700007F0AEEF07F089EF07F000C0E5FF01C021
:10008000E5FF02C0E5FF03C0E5FF04C0E5FF05C0D2
:10009000E5FF0001B66B05014051E838E840030B6D
:1000A000006E005003E0E86A8EEF04F005EE41F0C8
:1000B000EFCF00F0005002E18EEF03F00050010A94
:1000C00001E154D10050030A20E00050050A02E18A
:1000D0005DEF04F00050060A02E1DDEF02F000508F
:1000E000080A02E1D1EF02F00050090A02E160EFD4
:1000F00004F000500A0A02E186EF04F000500B0AF7
:1001000002E186EF04F083EF04F005EE42F0EECF5B
:1001100000F0EFCF01F0005002E1015007E0005085
:10012000010A03E1015001E1ECD01BD1050140516E
:100130001F0B020A01E078D0070E5F5C0AE205EEB1
:1001400044F0EECF00F0EFCF01F000500110D8A442
:100150006BD05F50070A01E06CD005EE44F0EECFA3
:1001600000F0EFCF01F00150E56E0050E56EE56A5A
:10017000030EE56EADEC0DF0006EF3CF01F0040E52
:10018000E126026A940E00260C0E0122000E0222C5
:1001900000C0F6FF01C0F7FF02C0F8FF0900F5CF6D
:1001A00000F00900F5CF01F00900F5CF02F000C022
:1001B000E9FF01C0F3FF025030EC0FF0060B34E012
:1001C00005EE44F0EECF00F0EFCF01F00150E56E08
:1001D0000050E56EE56A030EE56EADEC0DF0006EC5
:1001E000F3CF01F0040EE126026A940E00260C0EF5
:1001F0000122000E022200C0F6FF01C0F7FF02C07C
:10020000F8FF0900F5CF00F00900F5CF01F0090073
:10021000F5CF02F000C0E9FF01C0F3FF025030EC5F
:100220000FF0006E00A005D0010E0001B66F86EF42
:1002300004F005EE44F0EECF00F0EFCF01F00150F6
:10024000E56E0050E56EE56A030EE56EADEC0DF06F
:10025000006EF3CF01F0040EE126026A940E002630
:100260000C0E0122000E022200C0F6FF01C0F7FFB3
:1002700002C0F8FF0900F5CF00F00900F5CF01F04A
:100280000900F5CF02F005EE44F0EECF03F0EFCF1A
:1002900004F00450E56E0350E56EE56A030EE56E6A
:1002A000ADEC0DF0036EF3CF04F0040EE126056A09
:1002B000940E03260C0E0422000E052203C0F6FF46
:1002C00004C0F7FF05C0F8FF0900F5CF03F00900EF
:1002D000F5CF04F00900F5CF05F003C0E9FF04C035
:1002E000F3FF055030EC0FF0036E038003C0E5FF11
:1002F00000C0E9FF01C0F3FF0250AFEC0FF086EF42
:1003000004F0050140511F0B006E005003E1006A2C
:10031000002A01D0006A0050D880E866D890006AB0
:100320000036005018E1F2CFE5FFF29E05004C0EBA
:10033000FD6E030EFE6E000EFF6EE450F26E83C083
:10034000FBFF82C0FAFF00018151F96E006E005080
:1003500002E1006A02D0010E006E00C0B6F086EF26
:1003600004F0010E0001B66F86EF04F005EE42F0D6
:10037000EECF00F0EFCF01F0005002E1015007E0B6
:100380000050010A03E1015001E1D8D006D1050176
:1003900040511F0B020A01E078D0070E5F5C0AE2B1
:1003A00005EE44F0EECF00F0EFCF01F00050011069
:1003B000D8A46BD05F50070A01E06CD005EE44F082
:1003C000EECF00F0EFCF01F00150E56E0050E56E8A
:1003D000E56A030EE56EADEC0DF0006EF3CF01F0B3
:1003E000040EE126026A940E00260C0E0122000E75
:1003F000022200C0F6FF01C0F7FF02C0F8FF0900AB
:10040000F5CF00F00900F5CF01F00900F5CF02F0BB
:1004100000C0E9FF01C0F3FF025030EC0FF0060B03
:1004200034E005EE44F0EECF00F0EFCF01F00150E4
:10043000E56E0050E56EE56A030EE56EADEC0DF07D
:10044000006EF3CF01F0040EE126026A940E00263E
:100450000C0E0122000E022200C0F6FF01C0F7FFC1
:1004600002C0F8FF0900F5CF00F00900F5CF01F058
:100470000900F5CF02F000C0E9FF01C0F3FF025010
:1004800030EC0FF0006E00B005D0010E0001B66F29
:1004900086EF04F05E50030DF3CF00F0F4CF01F0CF
:1004A000026A00018D5100268E5101228F510222D5
:1004B00000C0E9FF01C0F3FF0250EEEC0EF0006E49
:1004C000F3CF01F0F4CF02F005EE44F0EECF03F0ED
:1004D000EFCF04F00450E56E0350E56EE56A030EBD
:1004E000E56EADEC0DF0036EF3CF04F0040EE126E3
:1004F0000350002604500122E86A022200C0E9FFEE
:1005000001C0F3FF0250EEEC0EF0006EF3CF01F0ED
:10051000F4CF02F0F2CFE5FFF29E0500380EFD6E3B
:10052000050EFE6E000EFF6EE450F26E02C0FBFF81
:1005300001C0FAFF0050F96E86EF04F0050140514A
:100540001F0B006E005003E1006A002A01D0006A10
:100550000050D880E866D890006A0036005018E154
:10056000F2CFE5FFF29E0500860EFD6E050EFE6ED3
:10057000000EFF6EE450F26E86C0FBFF85C0FAFFEE
:1005800000018451F96E006E005002E1006A02D051
:10059000010E006E00C0B6F0B9D1010E0001B66FB9
:1005A000B5D1000E0001A06F5E0E9F6F800EA16F8F
:1005B000010E0001A76FA86BA9D105EE43F0EFCFA4
:1005C00000F0010E005CD8A0A5D0040E005CD8B0ED
:1005D000A1D0000606C0E5FF07C0E5FF076A0034AA
:1005E0000736E8340736FC0B066E000EFB6E060E6F
:1005F000FA6E0A0E06260750FA22D8B0FB2A0650D9
:10060000E4CF07F0E4CF06F0F96E0BEF03F022EF32
:1006100003F05AEF03F078C09FF079C0A0F07AC0E1
:10062000A1F078C000F079C001F07AC002F000C0FB
:10063000E9FF01C0F3FF025030EC0FF00001A76F9B
:10064000A86B64D105EE42F0EFCF00F00050030D2F
:10065000F3CF00F0F4CF01F0026A00017B510026D5
:100660007C5101227D51022200C0F6FF01C0F7FF3C
:1006700002C0F8FF0900F5CF9FF00900F5CFA0F008
:100680000900F5CFA1F09FC000F0A0C001F0A1C00B
:1006900002F0020E0026000E0122022200C0E9FF35
:1006A00001C0F3FF025009EC0FF00001A76FF3CF78
:1006B000A8F02CD105EE42F0EFCF00F00050030D72
:1006C000F3CF00F0F4CF01F0026A00017E51002662
:1006D0007F5101228051022200C0E9FF01C0F3FFD7
:1006E0000250EEEC0EF000019F6FF3CFA0F0F4CFBC
:1006F000A1F09FC000F0A0C001F0A1C002F000C0B6
:10070000E9FF01C0F3FF025030EC0FF00001A76FCA
:10071000A86BFCD0010E0001B66FF8D0000E0001EE
:10072000A06FA90E9F6F800EA16F020E0001A76F30
:10073000A86B0001AA6B050140511F0B006E00C0A1
:1007400001F00150800F7D0FD8B0B3D006C0E5FF97
:1007500007C0E5FF076A00340736E8340736FC0BAC
:10076000066E000EFB6E070EFA6E820E062607500E
:10077000FA22D8B0FB2A0650E4CF07F0E4CF06F007
:10078000F96EC7EF03F0CBEF03F0DBEF03F05C5043
:100790000001A96FBBD005EE44F0EECF00F0EFCF23
:1007A00001F00050011004E0010E0001B66FAED060
:1007B0000001A96BABD0070E5F5C09E205EE44F0C7
:1007C000EECF00F0EFCF01F00050011036E15F50A6
:1007D000070A37E105EE44F0EECF00F0EFCF01F06D
:1007E0000150E56E0050E56EE56A030EE56EADEC76
:1007F0000DF0006EF3CF01F0040EE126026A940EB4
:1008000000260C0E0122000E022200C0F6FF01C0DD
:10081000F7FF02C0F8FF0900F5CF00F00900F5CF9F
:1008200001F00900F5CF02F000C0E9FF01C0F3FFBD
:10083000025030EC0FF0060B04E1010E0001B66F20
:1008400065D005EE44F0EECF00F0EFCF01F001509F
:10085000E56E0050E56EE56A030EE56EADEC0DF059
:10086000006EF3CF01F0040EE126026A940E00261A
:100870000C0E0122000E022200C0F6FF01C0F7FF9D
:1008800002C0F8FF0900F5CF00F00900F5CF01F034
:100890000900F5CF02F000C0E9FF01C0F3FF0250EC
:1008A00030EC0FF0006E010E001600500001A96F31
:1008B0002DD0010E0001B66F29D0040E5F6E26D038
:1008C00078C000F079C001F07AC002F0110E002665
:1008D000000E0122022200C0E9FF01C0F3FF025016
:1008E00030EC0FF0006E05EE42F0EFCF01F001505A
:1008F000005C05E3EFCFB5F0060E5F6E07D0010E8A
:100900000001B66F03D0010E0001B66F0001B651B1
:10091000D880E866D890006A00360050E4CF05F031
:10092000E4CF04F0E4CF03F0E4CF02F0E4CF01F031
:10093000E4CF00F0120000C0E5FF01C0E5FF02C0F7
:10094000E5FF03C0E5FF04C0E5FF69A41BD068A470
:1009500019D06D92699468A402D06894FCD7F2CF44
:10096000E5FFF29E0500840EFD6E090EFE6E000E80
:10097000FF6EE450F26E92C0FBFF91C0FAFF0001DF
:100980009051F96E69A003D068B0C0EC0CF069A872
:1009900018D068A816D0698468986D82F2CFE5FFF8
:1009A000F29E0500C20EFD6E090EFE6E000EFF6E79
:1009B000E450F26E95C0FBFF94C0FAFF0001935122
:1009C000F96E69AA42D068AA40D0006A70B0002AC5
:1009D0000050010A39E15E50030DF3CF00F0F4CF6F
:1009E00001F0026A00018D5100268E5101228F51C3
:1009F000022200C0E9FF01C0F3FF0250EEEC0EF04E
:100A0000006EF3CF01F0F4CF02F000C0E9FF01C0A7
:100A1000F3FF0250EEEC0EF0006EF3CF01F0F4CFD6
:100A200002F0F2CFE5FFF29E0500460EFD6E0A0EC3
:100A3000FE6E000EFF6EE450F26E02C0FBFF01C0BE
:100A4000FAFF0050F96E7090689A030E5F5CD8A0B0
:100A500016D169A614D168A612D16CB4BAD06C5064
:100A6000E838E8440F0B006E0044FE0B040DF3CF92
:100A700000F0016A00BE0168000E0026040E01228B
:100A800000C0E9FF01C0EAFFEF50E840E8400F0B6B
:100A90000D0A01E04FD05E50030DF3CF00F0F4CF0C
:100AA00001F0026A000196510026975101229851E7
:100AB000022200C0E9FF01C0F3FF0250EEEC0EF08D
:100AC000006EF3CF01F0F4CF02F06C50E838E84448
:100AD0000F0BE56AE56EE56A030EE56EADEC0DF011
:100AE000036EF3CF04F0040EE126035000260450F9
:100AF0000122E86A022200C0E9FF01C0F3FF0250B0
:100B0000EEEC0EF0006EF3CF01F0F4CF02F0F2CF76
:100B1000E5FFF29E0500320EFD6E0B0EFE6E000E1E
:100B2000FF6EE450F26E02C0FBFF01C0FAFF0050FE
:100B3000F96EA4D05E50030DF3CF00F0F4CF01F0B6
:100B4000026A0001995100269A5101229B5102220A
:100B500000C0E9FF01C0F3FF0250EEEC0EF0006EA2
:100B6000F3CF01F0F4CF02F06C50E838E8440F0BFB
:100B7000E56AE56EE56A030EE56EADEC0DF0036E19
:100B8000F3CF04F0040EE1260350002604500122A6
:100B9000E86A022200C0E9FF01C0F3FF0250EEEC58
:100BA0000EF0006EF3CF01F0F4CF02F0F2CFE5FFCC
:100BB000F29E0500D00EFD6E0B0EFE6E000EFF6E57
:100BC000E450F26E02C0FBFF01C0FAFF0050F96E64
:100BD00055D0006A6CB4002A0050010A01E04ED0E2
:100BE0005E50030DF3CF00F0F4CF01F0026A000174
:100BF0009C5100269D5101229E51022200C0E9FF16
:100C000001C0F3FF0250EEEC0EF0006EF3CF01F0E6
:100C1000F4CF02F06C50E838E8440F0BE56AE56E5B
:100C2000E56A030EE56EADEC0DF0036EF3CF04F054
:100C3000040EE1260350002604500122E86A022235
:100C400000C0E9FF01C0F3FF0250EEEC0EF0006EB1
:100C5000F3CF01F0F4CF02F0F2CFE5FFF29E0500F2
:100C60007C0EFD6E0C0EFE6E000EFF6EE450F26EFA
:100C700002C0FBFF01C0FAFF0050F96E6896E4CF96
:100C800004F0E4CF03F0E4CF02F0E4CF01F0E4CFCE
:100C900000F01200700F80710F80720F80730F8050
:100CA000740F80750F80760F80770F80780F8079B2
:100CB0000F807A0F807B0F807C0F807D0F807E0FEE
:100CC000807F0F8012010002FF00FF08A5A5010030
:100CD0000001010203020902120001010480FF0960
:100CE00004000000FFFFFF0409022000010205804C
:100CF000FF0904000002FFFFFF0507050102400095
:100D00000007058202400000D60C00E80C00040336
:100D100009041C0356006100730063006F0020008B
:100D2000500072006F006A006500630074002403C5
:100D30005000650072006900700068006500720074
:100D400061006C0020006D006F00640075006C0095
:100D50006500040331001003440065006600610073
:100D600075006C0074000C0346006C006100730099
:100D700068000E0D00120D002E0D00520D00560DD4
:100D800000660D00A01E00901F00901F00901F0025
:100D9000901F00901F00901F00901F00901F009058
:100DA0001F00901F00901F00901F00901F00901FB9
:100DB00000901F00A01E000C1F00801F00901F004D
:100DC000901F00901F00901F00901F00901F009028
:100DD0001F00901F00901F00901F00901F00901F89
:100DE00000901F00840D00840D00B40D0000820FE0
:100DF00000901F00901F00901F00901F00901F0088
:100E0000901F00901F00901F00901F00901F0090E7
:100E10001F00901F00901F00901F00901F00820F66
:100E200000901F006E1C00901F00901F00901F007C
:100E3000901F00901F00901F00901F00901F0090B7
:100E40001F00901F00901F00901F00901F00EE0DCC
:100E500000EE0D001E0E0000A01E00901F00901F4F
:100E600000901F00901F00901F00901F00901F0017
:100E7000901F00901F00901F00901F00901F009077
:100E80001F00901F00901F00A01E00B01500901FB3
:100E900000901F00901F00901F00901F00901F00E7
:100EA000901F00901F00901F00901F00901F009047
:100EB0001F00901F00901F00580E00580E00880E53
:100EC0000000741A00901F00901F00901F00901FD8
:100ED00000901F00901F00901F00901F00901F00A7
:100EE000901F00901F00901F00901F00901F009007
:100EF0001F00C20E00C20E00C20E0000030100005F
:100F000000FF1F0003002000FF7F00010000300DE4
:100F10000030E8060000E85007E000D000D000D024
:100F200000D00000E82EFAD71200E806E56E090EA0
:100F3000AEEC07F0630E89EC07F0E4500EE000D051
:100F4000E56E090EAEEC07F0630E89EC07F000D0F9
:100F500000D00000E450E82EF3D71200E806E56E5A
:100F6000630E89EC07F0E4500BE000D0E56E630EF1
:100F700089EC07F000D000D00000E450E82EF6D74E
:100F8000120000C0E5FF01C0E5FF02C0E5FF03C09D
:100F9000E5FF04C0E5FF5F50040A0BE105EE42F0F7
:100FA000EFCF6EFF6E5003E0050E5F6E02D0030EB2
:100FB0005F6E0001B451010A1FE1800EE56E000E64
:100FC000E56EA70EE56EE56A080EE56E800EE56E2D
:100FD000000EE56E9F0EE56E000EE56ACDEC0BF09F
:100FE000090EE126040104BD03D0C80E046F06D02B
:100FF000880E0401046F02D050EC0FF05F50060A17
:1010000001E0CCD0716A726A736A746A756A766A32
:10101000776A786A796A7A6A7B6A7C6A7D6A7E6AAC
:101020007F6A030E0001B55D1DE2E40E00018D6FC5
:101030000D0E8E6F000E8F6F4E0E00019C6F0E0E08
:101040009D6F000E9E6FB80E0001996F0E0E9A6F85
:10105000000E9B6FF20E0001966F0E0E976F000E42
:10106000986F3CD00A0EF66E200EF76E000EF86EEA
:101070000900F5CF8DF00900F5CF8EF00900F5CF0E
:101080008FF00D0EF66E200EF76E000EF86E090052
:10109000F5CF9CF00900F5CF9DF00900F5CF9EF04B
:1010A000100EF66E200EF76E000EF86E0900F5CFEA
:1010B00099F00900F5CF9AF00900F5CF9BF0130ED7
:1010C000F66E200EF76E000EF86E0900F5CF96F062
:1010D0000900F5CF97F00900F5CF98F0B5C05EF0A4
:1010E0000001B55103E1050E5F6E58D00F0E0001EF
:1010F000B76F0001B75103E0010E006E01D0006A26
:101100000050D8B449D00001B551030DF3CF00F021
:10111000F4CF01F0026A00018D5100268E510122A8
:101120008F51022200C0E9FF01C0F3FF0250EEEC34
:101130000EF0006EF3CF01F0F4CF02F00001B751D2
:10114000030DF3CF03F0F4CF04F003500026045056
:101150000122E86A022200C0E9FF01C0F3FF025049
:10116000EEEC0EF0006EF3CF01F0F4CF02F0F2CF10
:10117000E5FFF29E0500920EFD6E110EFE6E000E52
:10118000FF6EE450F26E02C0FBFF01C0FAFF005098
:10119000F96E0001B707ADD7070E5F6EE4CF04F01C
:1011A000E4CF03F0E4CF02F0E4CF01F0E4CF00F0AD
:1011B0001200D9CFE5FFE1CFD9FF00C0E5FF01C0A4
:1011C000E5FF02C0E5FF03C0E5FF04C0E5FF05C081
:1011D000E5FF06C0E5FF07C0E5FF020EDBCF00F02C
:1011E000030EDBCF01F0040EDBCF02F0050EDBCFE8
:1011F00003F0060EDBCF04F0070EDBCF05F0080E80
:10120000DBCF06F0090EDBCF07F000500001646F62
:101210000150656F0250666F0350676F0450000104
:10122000686F0550696F06506A6F07506B6F000159
:10123000645100016A03F3CF00F0F4CF01F00050D5
:1012400000016E6F01506F6F00016451000168036F
:10125000F3CF00F0F4CF01F0005000016C6F0150AB
:101260006D6F0001675100016803F3CF00F00001CA
:101270006F51002600506F6F000166510001690335
:10128000F3CF00F000016F51002600506F6F000196
:10129000665100016803F3CF00F0F4CF01F00001C4
:1012A0006E5100266F51012200506E6F01506F6F1A
:1012B0000001655100016903F3CF00F0F4CF01F0A4
:1012C00000016E5100266F51012200506E6F0150D7
:1012D0006F6F0001655100016A03F3CF00F0005009
:1012E0000001736F0001655100016803F3CF00F046
:1012F000F4CF01F000500001716F0150726F0001D6
:10130000645100016B03F3CF00F000500001776FD0
:101310000001645100016903F3CF00F0F4CF01F044
:1013200000500001756F0150766F0001706B000175
:10133000746B0001705100016C25006E0001715149
:1013400000016D21016E0001725100016E21026EDB
:101350000001735100016F21036E00506C6F01504A
:101360006D6F02506E6F03506F6F0001745100017A
:101370006C25006E0001755100016D21016E0001A8
:10138000765100016E21026E0001775100016F213C
:10139000036E03C0E9FF02C0F4FF01C0F3FF005079
:1013A000E4CF07F0E4CF06F0E4CF05F0E4CF04F09B
:1013B000E4CF03F0E4CF02F0E4CF01F0E4CF00F09B
:1013C000E4CFD9FF120000C0E5FF01C0E5FF02C075
:1013D000E5FF0F0EC16E070EB46E926893689468B5
:1013E00095689668929880885C6A0001606B616B72
:1013F000080E626F636B000160516111621163112D
:1014000006E0FF0E6027612362236323F4D78098F0
:10141000000EF66E200EF76E000EF86E0900F5CF86
:1014200000F00050D8A46CD081AE6AD0010EF66EE8
:10143000200EF76E000EF86E0900F5CF78F0090067
:10144000F5CF79F00900F5CF7AF0040EF66E200E94
:10145000F76E000EF86E0900F5CF7BF00900F5CFAE
:101460007CF00900F5CF7DF0070EF66E200EF76ECA
:10147000000EF86E0900F5CF7EF00900F5CF7FF081
:101480000900F5CF80F0190EF66E200EF76E000EF3
:10149000F86E0900F5CF93F00900F5CF94F009003C
:1014A000F5CF95F01C0EF66E200EF76E000EF86E5E
:1014B0000900F5CF90F00900F5CF91F00900F5CFC4
:1014C00092F01F0EF66E200EF76E000EF86E0900F9
:1014D000F5CF81F00900F5CF82F00900F5CF83F058
:1014E000220EF66E200EF76E000EF86E0900F5CF94
:1014F00084F00900F5CF85F00900F5CF86F035D0EE
:10150000C40E0001786F0C0E796F000E7A6F080E12
:1015100000017B6F0D0E7C6F000E7D6F720E00015F
:101520007E6F0D0E7F6F000E806F360E0001936F81
:101530001F0E946F000E956F220E0001906F1F0E0C
:10154000916F000E926F8C0E006E1F0E016E000EDA
:10155000026E00C081F001C082F002C083F000C0C2
:1015600084F001C085F002C086F0E40E00018D6FAA
:101570000D0E8E6F000E8F6F4E0E00019C6F0E0EC3
:101580009D6F000E9E6FB80E0001996F0E0E9A6F40
:10159000000E9B6FF20E0001966F0E0E976F000EFD
:1015A000986FE4CF02F0E4CF01F0E4CF00F0120036
:1015B000D9CFE5FFE1CFD9FF00C0E5FF01C0E5FFCE
:1015C00002C0E5FF03C0E5FF04C0E5FF05C0E5FF7D
:1015D00006C0E5FF07C0E5FF010E0401095DD8A0C4
:1015E000C1D000C500F0060E005CD8B0A7D008C07E
:1015F000E5FF09C0E5FF096A00340936E834093619
:10160000FC0B086E000EFB6E160EFA6E240E0826FA
:101610000950FA22D8B0FB2A0850E4CF09F0E4CFF1
:1016200008F0F96E1EEF0BF027EF0BF036EF0BF022
:101630008AEF0BF08BEF0BF090EF0BF001C5F6FF8C
:1016400002C5F7FF03C5F8FF1FEC0FF07FD001C5FF
:10165000F6FF02C5F7FF03C5F8FF050EE56E040EA1
:10166000E56E6BEC0EF0020EE12670D0400E00012C
:10167000AB6FAC6B01C500F0016A02C502F0036AF2
:101680000350E56E0250E56E010EE56E000EE56E4C
:10169000ADEC0DF0026EF3CF03F0040EE126025024
:1016A00000260350012203C502F0036A046A056A9A
:1016B0000550E56E0450E56E0350E56E0250E56E90
:1016C000000EE56E010EE56E000EE56E000EE56E95
:1016D000D9EC08F0026EF3CF03F0F4CF04F0E9CFB9
:1016E00005F0080EE126E86A01BEFF0E066E076EE1
:1016F0000050022601500322065004220750052202
:1017000004500001A46F0350A36F0250A26F9DEC20
:101710000EF01CD01BD00A0E95EC07F0FF0016D07F
:10172000160E0001AB6FAC6BFC0E0001A26F0E0E2B
:10173000A36F000EA46F9DEC0EF008D0400E0401C4
:10174000096F0A6B050E0B6F840E086F400E0401C3
:10175000096F08BD03D0C80E086F0CD0880E0401B5
:10176000086F08D0400E0401096F0A6B050E0B6F5D
:10177000840E086FE4CF07F0E4CF06F0E4CF05F065
:10178000E4CF04F0E4CF03F0E4CF02F0E4CF01F0C3
:10179000E4CF00F0E4CFD9FF1200D9CFE5FFE1CFCD
:1017A000D9FF00C0E5FF01C0E5FF02C0E5FF03C0AF
:1017B000E5FF04C0E5FF05C0E5FF06C0E5FF07C083
:1017C000E5FF08C0E5FF09C0E5FF0AC0E5FF0BC063
:1017D000E5FF020EDBCF00F0030EDBCF01F0040EBD
:1017E000DBCF02F0050EDBCF03F0060EDBCF04F0FB
:1017F000070EDBCF05F0080EDBCF06F0090EDBCFBE
:1018000007F00A0EDBCF08F006C0E9FF07C0F3FFC0
:10181000085009EC0FF0096EF3CF0AF005500A5C8E
:1018200002E10450095C05E209C0A5F00AC0A6F077
:1018300004D004C0A5F005C0A6F00044FE0B046E61
:101840000428040DF3CF00F0000E0024046E056A96
:10185000040E0522042AD8B0052A0001A5510B6EFA
:1018600004C0E9FF05C0EAFF0BC0EFFF046A000EE9
:101870000026040E0422020E0026D8B0042A00C05E
:10188000E9FF04C0EAFFEECF00F0EFCF04F0045010
:1018900000018B6F00508A6F800E8C6F0001A55184
:1018A000095EA6510A5A09C0E5FF0AC0F4FF06C046
:1018B000E9FF07C0F3FF08507AEC0FF00001A551D3
:1018C000A611D8B442D08AC000F08BC004F08CC0FE
:1018D00005F001C0E9FF02C0F3FF0350EEEC0EF08B
:1018E000066EF3CF07F0F4CF08F006C0E9FF07C09B
:1018F000F3FF085030EC0FF0096E09C0E5FF00C09F
:10190000E9FF04C0F3FF0550AFEC0FF000018A2B94
:1019100001E38B2B02E300018C2B062AD8B0072AA7
:10192000D8B0082A06C0E5FF07C0F4FF08C0F6FFDC
:1019300001C0E9FF02C0F3FF03505FEC0FF0FF0EA0
:101940000001A52701E2A607B9D7E4CF0BF0E4CF49
:101950000AF0E4CF09F0E4CF08F0E4CF07F0E4CFD9
:1019600006F0E4CF05F0E4CF04F0E4CF03F0E4CFD9
:1019700002F0E4CF01F0E4CF00F0E4CFD9FF120091
:1019800000C0E5FF01C0E5FF02C0E5FF03C0E5FFC1
:1019900004C0E5FF686A7B0E696E6B6A6E6A68A6B2
:1019A00002D06896FCD7030E5F6E5E6A5D6A706A4D
:1019B000716A726A736A746A756A766A776A786A33
:1019C000796A7A6A7B6A7C6A7D6A7E6A7F6A6D98C8
:1019D0000001B36B100E0001B35DD8B040D08DC0D4
:1019E00000F08EC001F08FC002F000C0E9FF01C01E
:1019F000F3FF0250EEEC0EF0006EF3CF01F0F4CFE7
:101A000002F00001B351030DF3CF03F0F4CF04F063
:101A10000350002604500122E86A022200C0E9FFB8
:101A200001C0F3FF0250EEEC0EF0006EF3CF01F0B8
:101A3000F4CF02F0F2CFE5FFF29E0500580EFD6EE6
:101A40001A0EFE6E000EFF6EE450F26E02C0FBFF37
:101A500001C0FAFF0050F96E0001B32BBBD7E4CFF1
:101A600004F0E4CF03F0E4CF02F0E4CF01F0E4CFE0
:101A700000F0120000C0E5FF01C0E5FF0001B46BFB
:101A80000001A76BA86B3DEC00F0006E0050D8B4CD
:101A900054D06D98006A050140BF002A0050010A29
:101AA00001E03CD0010E0001B46F080E0401016F8B
:101AB000400E026F050E036F800E006F480E066F1A
:101AC000050E076F05EE46F0EECF00F0EFCF01F008
:101AD0000001A851015C02E1A751005C06E205EE9D
:101AE00046F0EECFA7F0EFCFA8F0800EE56E000E27
:101AF000E56EA70EE56EE56A080EE56E800EE56EF2
:101B0000000EE56E9F0EE56E000EE56ACDEC0BF063
:101B1000090EE126C80E0401046F1AD0020E00015E
:101B2000B46F080E0401016F480E026F050E036FBB
:101B3000C80E006F056B046F0BD06D98080E040182
:101B4000016F400E026F050E036F840E006F046F6D
:101B5000E4CF01F0E4CF00F01200D9CFE5FFE1CFF0
:101B6000D9FF00C0E5FF01C0E5FF02C0E5FF03C0EB
:101B7000E5FF020EDBCF00F0030EDBCF01F0040E19
:101B8000DBCF02F0050EDBCF03F000500001AD6F9C
:101B90000150AE6F02500001AF6F0350B06F0001F3
:101BA000AD510001AF03F3CF00F0F4CF01F00050CE
:101BB0000001B16F0150B26F0001AD510001B003DF
:101BC000F3CF00F00001AE510001AF03F3CF01F0FD
:101BD000015000260001B25100260050B26FB2C081
:101BE000F3FFB151E4CF03F0E4CF02F0E4CF01F012
:101BF000E4CF00F0E4CFD9FF1200E3EC09F041ECB0
:101C00000FF06DEC0FF09BEC04F0000EF66E200E62
:101C1000F76E000EF86E0900F5CF00F00050F1E10C
:101C2000030E5E5CEEE3160EF66E200EF76E000EEF
:101C3000F86E0900F5CF00F00900F5CF01F00900BA
:101C4000F5CF02F0F2CFE5FFF29E0500680EFD6EC3
:101C50001C0EFE6E000EFF6EE450F26E02C0FBFF23
:101C600001C0FAFF0050F96EF26ACBD712000001F2
:101C7000AB51AC1103E10001B8512CE1000E0001A1
:101C8000AC5D02E1400EAB5DD8700001B86BB837B7
:101C90000001AB510401156F800EE56E000EE56E7C
:101CA000AB0EE56EE56A400EE56E800EE56E000E49
:101CB000E56EA20EE56E020EE56ECDEC0BF0090EA0
:101CC000E126040114BD03D0C80E146F03D0880EA2
:101CD0000401146F1200D9CFE5FFE1CFD9FF00C096
:101CE000E5FF01C0E5FF020EDBCF00F0030EDBCF06
:101CF00001F00A000001B96B200E0001B95D0DE290
:101D000000C0E9FF01C0EAFFEFCFF5FF002AD8B01D
:101D1000012A0F000001B92BEFD7A68EA69CA6843E
:101D2000F29E550EA76EAA0EA76EA682E4CF01F012
:101D3000E4CF00F0E4CFD9FF1200000E0001AC5D4B
:101D400002E1400EAB5DD8700001B86BB8370001FE
:101D5000AB510401156F400E166F050E176F800E04
:101D6000E56E000EE56EAB0EE56EE56A400EE56EC3
:101D7000800EE56E000EE56EA20EE56E020EE56EBB
:101D8000CDEC0BF0090EE126040114BD03D0C80E02
:101D9000146F03D0880E0401146F1200E8AE0AD04D
:101DA000F3CFEAFFEE50EECFF3FFEECFF4FFEECF2E
:101DB000E9FF1200E8BC11D0E9CFF6FFF3CFF7FF3F
:101DC000F86E0900F5500900F5CFF3FF0900F5CFD3
:101DD000F4FF0900F5CFE9FF12001200E8AE08D0C9
:101DE000F3CFEAFFEE50EECFF3FFEECFF4FF120099
:101DF000E8BC0ED0E9CFF6FFF3CFF7FFF86E09008D
:101E0000F5500900F5CFF3FF0900F5CFF4FF1200FC
:101E10001200E8AE06D0F3CFEAFFEE50EECFF3FFAC
:101E20001200E8BC0BD0E9CFF6FFF3CFF7FFF86E56
:101E30000900F5500900F5CFF3FF12001200D9CFC9
:101E4000E5FFE1CFD9FFA68EA69CA684A688F29EC8
:101E5000550EA76EAA0EA76EA682E4CFD9FF120078
:101E6000E8AE04D0F3CFEAFFEE501200E8BC08D091
:101E7000E9CFF6FFF3CFF7FFF86E0900F550120037
:101E80001200696A040E6F6E080E6D6E6DBAFED791
:101E9000686A110E696E020E5F6E5E6A5D6A1200FC
:101EA0000001B46B080E0401016F400E026F050EB5
:101EB000036F880E006F046B160E706E1200E8AE92
:101EC00009D0F3CFEAFFE4CFEEFFF4CFEEFFF6CF79
:101ED000EEFF1200E8AC12001200D9CFE5FFE1CF0F
:101EE000D9FF6DA204D0A08A0300A19AA09AE4CFE2
:101EF000D9FF1200E8AE07D0F3CFEAFFE4CFEEFF40
:101F0000F4CFEEFF1200E8AC12001200400E040104
:101F1000096F0A6B050E0B6F880E086F1C0E716E31
:101F200012000001BA51010BE838F46E8050EF0B3B
:101F3000F410806E120000C0E5FF006A80B8002A2D
:101F400000C0BAF0E4CF00F0120012EEFEF022EE74
:101F5000FEF0F86AA68EA69CFDEC0DF0FFD7E8AE69
:101F600005D0F3CFEAFFE4CFEEFF1200E8AC120099
:101F700012000100921F0000BA00000001000000E2
:101F8000480E0401146F1A0E726E1200010E120038
:041F9000120000003B
:10200000FF000000000000000000000000000000D1
:1020100000000000000000000000000000000000C0
:06202000000000000000BA
:10203000E8CFE5FFD8CFE5FFE0CFE5FFF3CFE5FF41
:10204000F4CFE5FFE9CFE5FFEACFE5FFFACFE5FF03
:10205000FBCFE5FFE4CFFBFFE4CFFAFFE4CFEAFFDD
:10206000E4CFE9FFE4CFF4FFE4CFF3FFE4CFE0FFF8
:0A207000E4CFD8FFE4CFE8FF100032
:10400000E8CFE5FFD8CFE5FFE0CFE5FFF3CFE5FF51
:10401000F4CFE5FFE9CFE5FFEACFE5FFFACFE5FF13
:10402000FBCFE5FFE4CFFBFFE4CFFAFFE4CFEAFFED
:10403000E4CFE9FFE4CFF4FFE4CFF3FFE4CFE0FF08
:0A404000E4CFD8FFE4CFE8FF100042
:020000040030CA
:0E000000E33EF8E0FFF99AFFFFFFFE9FFFFFCF
:00000001FF
